{
  "_format": "hh-sol-artifact-1",
  "contractName": "RunesOfLostRealms",
  "sourceName": "contracts/RunesOfLostRealms.sol",
  "abi": [
    {
      "inputs": [],
      "stateMutability": "nonpayable",
      "type": "constructor"
    },
    {
      "inputs": [
        {
          "internalType": "address",
          "name": "target",
          "type": "address"
        }
      ],
      "name": "AddressEmptyCode",
      "type": "error"
    },
    {
      "inputs": [
        {
          "internalType": "address",
          "name": "implementation",
          "type": "address"
        }
      ],
      "name": "ERC1967InvalidImplementation",
      "type": "error"
    },
    {
      "inputs": [],
      "name": "ERC1967NonPayable",
      "type": "error"
    },
    {
      "inputs": [
        {
          "internalType": "address",
          "name": "sender",
          "type": "address"
        },
        {
          "internalType": "uint256",
          "name": "tokenId",
          "type": "uint256"
        },
        {
          "internalType": "address",
          "name": "owner",
          "type": "address"
        }
      ],
      "name": "ERC721IncorrectOwner",
      "type": "error"
    },
    {
      "inputs": [
        {
          "internalType": "address",
          "name": "operator",
          "type": "address"
        },
        {
          "internalType": "uint256",
          "name": "tokenId",
          "type": "uint256"
        }
      ],
      "name": "ERC721InsufficientApproval",
      "type": "error"
    },
    {
      "inputs": [
        {
          "internalType": "address",
          "name": "approver",
          "type": "address"
        }
      ],
      "name": "ERC721InvalidApprover",
      "type": "error"
    },
    {
      "inputs": [
        {
          "internalType": "address",
          "name": "operator",
          "type": "address"
        }
      ],
      "name": "ERC721InvalidOperator",
      "type": "error"
    },
    {
      "inputs": [
        {
          "internalType": "address",
          "name": "owner",
          "type": "address"
        }
      ],
      "name": "ERC721InvalidOwner",
      "type": "error"
    },
    {
      "inputs": [
        {
          "internalType": "address",
          "name": "receiver",
          "type": "address"
        }
      ],
      "name": "ERC721InvalidReceiver",
      "type": "error"
    },
    {
      "inputs": [
        {
          "internalType": "address",
          "name": "sender",
          "type": "address"
        }
      ],
      "name": "ERC721InvalidSender",
      "type": "error"
    },
    {
      "inputs": [
        {
          "internalType": "uint256",
          "name": "tokenId",
          "type": "uint256"
        }
      ],
      "name": "ERC721NonexistentToken",
      "type": "error"
    },
    {
      "inputs": [],
      "name": "FailedCall",
      "type": "error"
    },
    {
      "inputs": [],
      "name": "InvalidInitialization",
      "type": "error"
    },
    {
      "inputs": [],
      "name": "NotInitializing",
      "type": "error"
    },
    {
      "inputs": [
        {
          "internalType": "address",
          "name": "owner",
          "type": "address"
        }
      ],
      "name": "OwnableInvalidOwner",
      "type": "error"
    },
    {
      "inputs": [
        {
          "internalType": "address",
          "name": "account",
          "type": "address"
        }
      ],
      "name": "OwnableUnauthorizedAccount",
      "type": "error"
    },
    {
      "inputs": [],
      "name": "UUPSUnauthorizedCallContext",
      "type": "error"
    },
    {
      "inputs": [
        {
          "internalType": "bytes32",
          "name": "slot",
          "type": "bytes32"
        }
      ],
      "name": "UUPSUnsupportedProxiableUUID",
      "type": "error"
    },
    {
      "anonymous": false,
      "inputs": [
        {
          "indexed": true,
          "internalType": "address",
          "name": "owner",
          "type": "address"
        },
        {
          "indexed": true,
          "internalType": "address",
          "name": "approved",
          "type": "address"
        },
        {
          "indexed": true,
          "internalType": "uint256",
          "name": "tokenId",
          "type": "uint256"
        }
      ],
      "name": "Approval",
      "type": "event"
    },
    {
      "anonymous": false,
      "inputs": [
        {
          "indexed": true,
          "internalType": "address",
          "name": "owner",
          "type": "address"
        },
        {
          "indexed": true,
          "internalType": "address",
          "name": "operator",
          "type": "address"
        },
        {
          "indexed": false,
          "internalType": "bool",
          "name": "approved",
          "type": "bool"
        }
      ],
      "name": "ApprovalForAll",
      "type": "event"
    },
    {
      "anonymous": false,
      "inputs": [
        {
          "indexed": false,
          "internalType": "string",
          "name": "newBaseURI",
          "type": "string"
        }
      ],
      "name": "BaseURIUpdated",
      "type": "event"
    },
    {
      "anonymous": false,
      "inputs": [
        {
          "indexed": false,
          "internalType": "uint64",
          "name": "version",
          "type": "uint64"
        }
      ],
      "name": "Initialized",
      "type": "event"
    },
    {
      "anonymous": false,
      "inputs": [
        {
          "indexed": true,
          "internalType": "address",
          "name": "previousOwner",
          "type": "address"
        },
        {
          "indexed": true,
          "internalType": "address",
          "name": "newOwner",
          "type": "address"
        }
      ],
      "name": "OwnershipTransferred",
      "type": "event"
    },
    {
      "anonymous": false,
      "inputs": [
        {
          "indexed": true,
          "internalType": "address",
          "name": "from",
          "type": "address"
        },
        {
          "indexed": true,
          "internalType": "address",
          "name": "to",
          "type": "address"
        },
        {
          "indexed": true,
          "internalType": "uint256",
          "name": "tokenId",
          "type": "uint256"
        }
      ],
      "name": "Transfer",
      "type": "event"
    },
    {
      "anonymous": false,
      "inputs": [
        {
          "indexed": true,
          "internalType": "address",
          "name": "implementation",
          "type": "address"
        }
      ],
      "name": "Upgraded",
      "type": "event"
    },
    {
      "anonymous": false,
      "inputs": [
        {
          "indexed": false,
          "internalType": "address",
          "name": "owner",
          "type": "address"
        },
        {
          "indexed": false,
          "internalType": "uint256",
          "name": "amount",
          "type": "uint256"
        }
      ],
      "name": "WithdrawCompleted",
      "type": "event"
    },
    {
      "inputs": [],
      "name": "MAX_PER_WALLET",
      "outputs": [
        {
          "internalType": "uint256",
          "name": "",
          "type": "uint256"
        }
      ],
      "stateMutability": "view",
      "type": "function"
    },
    {
      "inputs": [],
      "name": "MINT_PRICE",
      "outputs": [
        {
          "internalType": "uint256",
          "name": "",
          "type": "uint256"
        }
      ],
      "stateMutability": "view",
      "type": "function"
    },
    {
      "inputs": [],
      "name": "TOTAL_SUPPLY",
      "outputs": [
        {
          "internalType": "uint256",
          "name": "",
          "type": "uint256"
        }
      ],
      "stateMutability": "view",
      "type": "function"
    },
    {
      "inputs": [],
      "name": "UPGRADE_INTERFACE_VERSION",
      "outputs": [
        {
          "internalType": "string",
          "name": "",
          "type": "string"
        }
      ],
      "stateMutability": "view",
      "type": "function"
    },
    {
      "inputs": [
        {
          "internalType": "address",
          "name": "to",
          "type": "address"
        },
        {
          "internalType": "uint256",
          "name": "tokenId",
          "type": "uint256"
        }
      ],
      "name": "approve",
      "outputs": [],
      "stateMutability": "nonpayable",
      "type": "function"
    },
    {
      "inputs": [
        {
          "internalType": "address",
          "name": "owner",
          "type": "address"
        }
      ],
      "name": "balanceOf",
      "outputs": [
        {
          "internalType": "uint256",
          "name": "",
          "type": "uint256"
        }
      ],
      "stateMutability": "view",
      "type": "function"
    },
    {
      "inputs": [
        {
          "internalType": "uint256",
          "name": "tokenId",
          "type": "uint256"
        }
      ],
      "name": "getApproved",
      "outputs": [
        {
          "internalType": "address",
          "name": "",
          "type": "address"
        }
      ],
      "stateMutability": "view",
      "type": "function"
    },
    {
      "inputs": [
        {
          "internalType": "string",
          "name": "initialBaseURI",
          "type": "string"
        }
      ],
      "name": "initialize",
      "outputs": [],
      "stateMutability": "nonpayable",
      "type": "function"
    },
    {
      "inputs": [
        {
          "internalType": "address",
          "name": "owner",
          "type": "address"
        },
        {
          "internalType": "address",
          "name": "operator",
          "type": "address"
        }
      ],
      "name": "isApprovedForAll",
      "outputs": [
        {
          "internalType": "bool",
          "name": "",
          "type": "bool"
        }
      ],
      "stateMutability": "view",
      "type": "function"
    },
    {
      "inputs": [],
      "name": "mint",
      "outputs": [],
      "stateMutability": "payable",
      "type": "function"
    },
    {
      "inputs": [
        {
          "internalType": "uint256",
          "name": "quantity",
          "type": "uint256"
        }
      ],
      "name": "mintBatch",
      "outputs": [],
      "stateMutability": "payable",
      "type": "function"
    },
    {
      "inputs": [],
      "name": "name",
      "outputs": [
        {
          "internalType": "string",
          "name": "",
          "type": "string"
        }
      ],
      "stateMutability": "view",
      "type": "function"
    },
    {
      "inputs": [],
      "name": "owner",
      "outputs": [
        {
          "internalType": "address",
          "name": "",
          "type": "address"
        }
      ],
      "stateMutability": "view",
      "type": "function"
    },
    {
      "inputs": [
        {
          "internalType": "uint256",
          "name": "tokenId",
          "type": "uint256"
        }
      ],
      "name": "ownerOf",
      "outputs": [
        {
          "internalType": "address",
          "name": "",
          "type": "address"
        }
      ],
      "stateMutability": "view",
      "type": "function"
    },
    {
      "inputs": [],
      "name": "proxiableUUID",
      "outputs": [
        {
          "internalType": "bytes32",
          "name": "",
          "type": "bytes32"
        }
      ],
      "stateMutability": "view",
      "type": "function"
    },
    {
      "inputs": [],
      "name": "renounceOwnership",
      "outputs": [],
      "stateMutability": "nonpayable",
      "type": "function"
    },
    {
      "inputs": [
        {
          "internalType": "address",
          "name": "from",
          "type": "address"
        },
        {
          "internalType": "address",
          "name": "to",
          "type": "address"
        },
        {
          "internalType": "uint256",
          "name": "tokenId",
          "type": "uint256"
        }
      ],
      "name": "safeTransferFrom",
      "outputs": [],
      "stateMutability": "nonpayable",
      "type": "function"
    },
    {
      "inputs": [
        {
          "internalType": "address",
          "name": "from",
          "type": "address"
        },
        {
          "internalType": "address",
          "name": "to",
          "type": "address"
        },
        {
          "internalType": "uint256",
          "name": "tokenId",
          "type": "uint256"
        },
        {
          "internalType": "bytes",
          "name": "data",
          "type": "bytes"
        }
      ],
      "name": "safeTransferFrom",
      "outputs": [],
      "stateMutability": "nonpayable",
      "type": "function"
    },
    {
      "inputs": [
        {
          "internalType": "address",
          "name": "operator",
          "type": "address"
        },
        {
          "internalType": "bool",
          "name": "approved",
          "type": "bool"
        }
      ],
      "name": "setApprovalForAll",
      "outputs": [],
      "stateMutability": "nonpayable",
      "type": "function"
    },
    {
      "inputs": [
        {
          "internalType": "string",
          "name": "newBaseURI",
          "type": "string"
        }
      ],
      "name": "setBaseURI",
      "outputs": [],
      "stateMutability": "nonpayable",
      "type": "function"
    },
    {
      "inputs": [
        {
          "internalType": "bytes4",
          "name": "interfaceId",
          "type": "bytes4"
        }
      ],
      "name": "supportsInterface",
      "outputs": [
        {
          "internalType": "bool",
          "name": "",
          "type": "bool"
        }
      ],
      "stateMutability": "view",
      "type": "function"
    },
    {
      "inputs": [],
      "name": "symbol",
      "outputs": [
        {
          "internalType": "string",
          "name": "",
          "type": "string"
        }
      ],
      "stateMutability": "view",
      "type": "function"
    },
    {
      "inputs": [
        {
          "internalType": "uint256",
          "name": "tokenId",
          "type": "uint256"
        }
      ],
      "name": "tokenURI",
      "outputs": [
        {
          "internalType": "string",
          "name": "",
          "type": "string"
        }
      ],
      "stateMutability": "view",
      "type": "function"
    },
    {
      "inputs": [
        {
          "internalType": "address",
          "name": "from",
          "type": "address"
        },
        {
          "internalType": "address",
          "name": "to",
          "type": "address"
        },
        {
          "internalType": "uint256",
          "name": "tokenId",
          "type": "uint256"
        }
      ],
      "name": "transferFrom",
      "outputs": [],
      "stateMutability": "nonpayable",
      "type": "function"
    },
    {
      "inputs": [
        {
          "internalType": "address",
          "name": "newOwner",
          "type": "address"
        }
      ],
      "name": "transferOwnership",
      "outputs": [],
      "stateMutability": "nonpayable",
      "type": "function"
    },
    {
      "inputs": [
        {
          "internalType": "address",
          "name": "newImplementation",
          "type": "address"
        },
        {
          "internalType": "bytes",
          "name": "data",
          "type": "bytes"
        }
      ],
      "name": "upgradeToAndCall",
      "outputs": [],
      "stateMutability": "payable",
      "type": "function"
    },
    {
      "inputs": [],
      "name": "withdraw",
      "outputs": [],
      "stateMutability": "nonpayable",
      "type": "function"
    }
  ],
  "bytecode": "0x60a06040523060805234801561001457600080fd5b5061001d610022565b6100d4565b7ff0c57e16840df040f15088dc2f81fe391c3923bec73e23a9662efc9c229c6a00805468010000000000000000900460ff16156100725760405163f92ee8a960e01b815260040160405180910390fd5b80546001600160401b03908116146100d15780546001600160401b0319166001600160401b0390811782556040519081527fc7f505b2f371ae2175ee4913f4499e1f2633a7b5936321eed1cdaeb6115181d29060200160405180910390a15b50565b60805161210c620000fe60003960008181610fce01528181610ff70152611138015261210c6000f3fe60806040526004361061019c5760003560e01c80636352211e116100ec578063ad3cb1cc1161008a578063c87b56dd11610064578063c87b56dd14610475578063e985e9c514610495578063f2fde38b146104b5578063f62d1888146104d557600080fd5b8063ad3cb1cc14610409578063b88d4fde1461043a578063c002d23d1461045a57600080fd5b80638da5cb5b116100c65780638da5cb5b14610382578063902d55a5146103bf57806395d89b41146103d4578063a22cb465146103e957600080fd5b80636352211e1461032d57806370a082311461034d578063715018a61461036d57600080fd5b806320e409b41161015957806342842e0e1161013357806342842e0e146102c55780634f1ef286146102e557806352d1902d146102f857806355f804b31461030d57600080fd5b806320e409b41461027d57806323b872dd146102905780633ccfd60b146102b057600080fd5b806301ffc9a7146101a157806306fdde03146101d6578063081812fc146101f8578063095ea7b3146102305780630f2cdd6c146102525780631249c58b14610275575b600080fd5b3480156101ad57600080fd5b506101c16101bc366004611aed565b6104f5565b60405190151581526020015b60405180910390f35b3480156101e257600080fd5b506101eb610547565b6040516101cd9190611b5a565b34801561020457600080fd5b50610218610213366004611b6d565b6105eb565b6040516001600160a01b0390911681526020016101cd565b34801561023c57600080fd5b5061025061024b366004611ba2565b610600565b005b34801561025e57600080fd5b50610267600281565b6040519081526020016101cd565b61025061060f565b61025061028b366004611b6d565b61072c565b34801561029c57600080fd5b506102506102ab366004611bcc565b610876565b3480156102bc57600080fd5b50610250610901565b3480156102d157600080fd5b506102506102e0366004611bcc565b6109d2565b6102506102f3366004611cb4565b6109f2565b34801561030457600080fd5b50610267610a0d565b34801561031957600080fd5b50610250610328366004611d02565b610a2a565b34801561033957600080fd5b50610218610348366004611b6d565b610a79565b34801561035957600080fd5b50610267610368366004611d4b565b610a84565b34801561037957600080fd5b50610250610ae0565b34801561038e57600080fd5b507f9016d09d72d40fdae2fd8ceac6b6234c7706214fd39c1cd1e609a0528c199300546001600160a01b0316610218565b3480156103cb57600080fd5b50610267600881565b3480156103e057600080fd5b506101eb610af4565b3480156103f557600080fd5b50610250610404366004611d66565b610b33565b34801561041557600080fd5b506101eb604051806040016040528060058152602001640352e302e360dc1b81525081565b34801561044657600080fd5b50610250610455366004611da2565b610b3e565b34801561046657600080fd5b50610267661b9ac619e7a00081565b34801561048157600080fd5b506101eb610490366004611b6d565b610b56565b3480156104a157600080fd5b506101c16104b0366004611e0a565b610bbe565b3480156104c157600080fd5b506102506104d0366004611d4b565b610c0b565b3480156104e157600080fd5b506102506104f0366004611d02565b610c46565b60006001600160e01b031982166380ac58cd60e01b148061052657506001600160e01b03198216635b5e139f60e01b145b8061054157506301ffc9a760e01b6001600160e01b03198316145b92915050565b600080516020612097833981519152805460609190819061056790611e3d565b80601f016020809104026020016040519081016040528092919081815260200182805461059390611e3d565b80156105e05780601f106105b5576101008083540402835291602001916105e0565b820191906000526020600020905b8154815290600101906020018083116105c357829003601f168201915b505050505091505090565b60006105f682610dc5565b5061054182610dfd565b61060b828233610e37565b5050565b6008600154106106665760405162461bcd60e51b815260206004820152601f60248201527f4d696e74696e6720776f756c6420657863656564206d617820737570706c790060448201526064015b60405180910390fd5b661b9ac619e7a00034146106b75760405162461bcd60e51b8152602060048201526018602482015277125b98dbdc9c9958dd081c185e5b595b9d08185b5bdd5b9d60421b604482015260640161065d565b60026106c233610a84565b106107085760405162461bcd60e51b8152602060048201526016602482015275115e18d959591cc81b585e081c195c881dd85b1b195d60521b604482015260640161065d565b60018054908190600061071a83611e8d565b91905055506107293382610e44565b50565b60088160015461073c9190611ea6565b111561078a5760405162461bcd60e51b815260206004820152601f60248201527f4d696e74696e6720776f756c6420657863656564206d617820737570706c7900604482015260640161065d565b61079b81661b9ac619e7a000611eb9565b34146107e45760405162461bcd60e51b8152602060048201526018602482015277125b98dbdc9c9958dd081c185e5b595b9d08185b5bdd5b9d60421b604482015260640161065d565b6002816107f033610a84565b6107fa9190611ea6565b11156108415760405162461bcd60e51b8152602060048201526016602482015275115e18d959591cc81b585e081c195c881dd85b1b195d60521b604482015260640161065d565b60005b8181101561060b5760018054908190600061085e83611e8d565b919050555061086d3382610e44565b50600101610844565b6001600160a01b0382166108a057604051633250574960e11b81526000600482015260240161065d565b60006108ad838333610e5e565b9050836001600160a01b0316816001600160a01b0316146108fb576040516364283d7b60e01b81526001600160a01b038086166004830152602482018490528216604482015260640161065d565b50505050565b610909610f68565b6040514790600090339083908381818185875af1925050503d806000811461094d576040519150601f19603f3d011682016040523d82523d6000602084013e610952565b606091505b50509050806109955760405162461bcd60e51b815260206004820152600f60248201526e151c985b9cd9995c8819985a5b1959608a1b604482015260640161065d565b60408051338152602081018490527f60188009b974c2fa66ee3b916d93f64d6534ea2204e0c466f9784ace689e8e49910160405180910390a15050565b6109ed83838360405180602001604052806000815250610b3e565b505050565b6109fa610fc3565b610a0382611068565b61060b8282611070565b6000610a1761112d565b506000805160206120b783398151915290565b610a32610f68565b6000610a3e8282611f18565b507f6741b2fc379fad678116fe3d4d4b9a1a184ab53ba36b86ad0fa66340b1ab41ad81604051610a6e9190611b5a565b60405180910390a150565b600061054182610dc5565b60006000805160206120978339815191526001600160a01b038316610abf576040516322718ad960e21b81526000600482015260240161065d565b6001600160a01b039092166000908152600390920160205250604090205490565b610ae8610f68565b610af26000611176565b565b7f80bb2b638cc20bc4d0a60d66940f3ab4a00c1d7b313497ca82fb0b4ab007930180546060916000805160206120978339815191529161056790611e3d565b61060b3383836111e7565b610b49848484610876565b6108fb3385858585611298565b6060610b6182610dc5565b506000610b6c6113c1565b90506000815111610b8c5760405180602001604052806000815250610bb7565b80610b9684611453565b604051602001610ba7929190611fd8565b6040516020818303038152906040525b9392505050565b6001600160a01b0391821660009081527f80bb2b638cc20bc4d0a60d66940f3ab4a00c1d7b313497ca82fb0b4ab00793056020908152604080832093909416825291909152205460ff1690565b610c13610f68565b6001600160a01b038116610c3d57604051631e4fbdf760e01b81526000600482015260240161065d565b61072981611176565b7ff0c57e16840df040f15088dc2f81fe391c3923bec73e23a9662efc9c229c6a008054600160401b810460ff16159067ffffffffffffffff16600081158015610c8c5750825b905060008267ffffffffffffffff166001148015610ca95750303b155b905081158015610cb7575080155b15610cd55760405163f92ee8a960e01b815260040160405180910390fd5b845467ffffffffffffffff191660011785558315610cff57845460ff60401b1916600160401b1785555b610d596040518060400160405280601881526020017f52756e6573206f6620746865204c6f7374205265616c6d7300000000000000008152506040518060400160405280600381526020016229262960e91b8152506114e6565b610d62336114f8565b610d6a611509565b6000610d768782611f18565b508315610dbd57845460ff60401b19168555604051600181527fc7f505b2f371ae2175ee4913f4499e1f2633a7b5936321eed1cdaeb6115181d29060200160405180910390a15b505050505050565b600080610dd183611511565b90506001600160a01b03811661054157604051637e27328960e01b81526004810184905260240161065d565b60009081527f80bb2b638cc20bc4d0a60d66940f3ab4a00c1d7b313497ca82fb0b4ab007930460205260409020546001600160a01b031690565b6109ed838383600161154b565b61060b828260405180602001604052806000815250611661565b600060008051602061209783398151915281610e7985611511565b90506001600160a01b03841615610e9557610e95818587611679565b6001600160a01b03811615610ed557610eb260008660008061154b565b6001600160a01b0381166000908152600383016020526040902080546000190190555b6001600160a01b03861615610f06576001600160a01b03861660009081526003830160205260409020805460010190555b600085815260028301602052604080822080546001600160a01b0319166001600160a01b038a811691821790925591518893918516917fddf252ad1be2c89b69c2b068fc378daa952ba7f163c4a11628f55a4df523b3ef91a495945050505050565b33610f9a7f9016d09d72d40fdae2fd8ceac6b6234c7706214fd39c1cd1e609a0528c199300546001600160a01b031690565b6001600160a01b031614610af25760405163118cdaa760e01b815233600482015260240161065d565b306001600160a01b037f000000000000000000000000000000000000000000000000000000000000000016148061104a57507f00000000000000000000000000000000000000000000000000000000000000006001600160a01b031661103e6000805160206120b7833981519152546001600160a01b031690565b6001600160a01b031614155b15610af25760405163703e46dd60e11b815260040160405180910390fd5b610729610f68565b816001600160a01b03166352d1902d6040518163ffffffff1660e01b8152600401602060405180830381865afa9250505080156110ca575060408051601f3d908101601f191682019092526110c791810190612007565b60015b6110f257604051634c9c8ce360e01b81526001600160a01b038316600482015260240161065d565b6000805160206120b7833981519152811461112357604051632a87526960e21b81526004810182905260240161065d565b6109ed83836116dd565b306001600160a01b037f00000000000000000000000000000000000000000000000000000000000000001614610af25760405163703e46dd60e11b815260040160405180910390fd5b7f9016d09d72d40fdae2fd8ceac6b6234c7706214fd39c1cd1e609a0528c19930080546001600160a01b031981166001600160a01b03848116918217845560405192169182907f8be0079c531659141344cd1fd0a4f28419497f9722a3daafe3b4186f6b6457e090600090a3505050565b6000805160206120978339815191526001600160a01b03831661122857604051630b61174360e31b81526001600160a01b038416600482015260240161065d565b6001600160a01b038481166000818152600584016020908152604080832094881680845294825291829020805460ff191687151590811790915591519182527f17307eab39ab6107e8899845ad3d59bd9653f200f220920489ca2b5937696c31910160405180910390a350505050565b6001600160a01b0383163b156113ba57604051630a85bd0160e11b81526001600160a01b0384169063150b7a02906112da908890889087908790600401612020565b6020604051808303816000875af1925050508015611315575060408051601f3d908101601f191682019092526113129181019061205d565b60015b61137e573d808015611343576040519150601f19603f3d011682016040523d82523d6000602084013e611348565b606091505b50805160000361137657604051633250574960e11b81526001600160a01b038516600482015260240161065d565b805181602001fd5b6001600160e01b03198116630a85bd0160e11b14610dbd57604051633250574960e11b81526001600160a01b038516600482015260240161065d565b5050505050565b6060600080546113d090611e3d565b80601f01602080910402602001604051908101604052809291908181526020018280546113fc90611e3d565b80156114495780601f1061141e57610100808354040283529160200191611449565b820191906000526020600020905b81548152906001019060200180831161142c57829003601f168201915b5050505050905090565b6060600061146083611733565b600101905060008167ffffffffffffffff81111561148057611480611c08565b6040519080825280601f01601f1916602001820160405280156114aa576020820181803683370190505b5090508181016020015b600019016f181899199a1a9b1b9c1cb0b131b232b360811b600a86061a8153600a85049450846114b457509392505050565b6114ee61180b565b61060b8282611854565b61150061180b565b61072981611885565b610af261180b565b60009081527f80bb2b638cc20bc4d0a60d66940f3ab4a00c1d7b313497ca82fb0b4ab007930260205260409020546001600160a01b031690565b600080516020612097833981519152818061156e57506001600160a01b03831615155b1561163057600061157e85610dc5565b90506001600160a01b038416158015906115aa5750836001600160a01b0316816001600160a01b031614155b80156115bd57506115bb8185610bbe565b155b156115e65760405163a9fbf51f60e01b81526001600160a01b038516600482015260240161065d565b821561162e5784866001600160a01b0316826001600160a01b03167f8c5be1e5ebec7d5bd14f71427d1e84f3dd0314c0f7b2291e5b200ac8c7c3b92560405160405180910390a45b505b600093845260040160205250506040902080546001600160a01b0319166001600160a01b0392909216919091179055565b61166b838361188d565b6109ed336000858585611298565b6116848383836118f2565b6109ed576001600160a01b0383166116b257604051637e27328960e01b81526004810182905260240161065d565b60405163177e802f60e01b81526001600160a01b03831660048201526024810182905260440161065d565b6116e682611958565b6040516001600160a01b038316907fbc7cd75a20ee27fd9adebab32041f755214dbc6bffa90cc0225b39da2e5c2d3b90600090a280511561172b576109ed82826119bd565b61060b611a33565b60008072184f03e93ff9f4daa797ed6e38ed64bf6a1f0160401b83106117725772184f03e93ff9f4daa797ed6e38ed64bf6a1f0160401b830492506040015b6d04ee2d6d415b85acef8100000000831061179e576d04ee2d6d415b85acef8100000000830492506020015b662386f26fc1000083106117bc57662386f26fc10000830492506010015b6305f5e10083106117d4576305f5e100830492506008015b61271083106117e857612710830492506004015b606483106117fa576064830492506002015b600a83106105415760010192915050565b7ff0c57e16840df040f15088dc2f81fe391c3923bec73e23a9662efc9c229c6a0054600160401b900460ff16610af257604051631afcd79f60e31b815260040160405180910390fd5b61185c61180b565b600080516020612097833981519152806118768482611f18565b50600181016108fb8382611f18565b610c1361180b565b6001600160a01b0382166118b757604051633250574960e11b81526000600482015260240161065d565b60006118c583836000610e5e565b90506001600160a01b038116156109ed576040516339e3563760e11b81526000600482015260240161065d565b60006001600160a01b038316158015906119505750826001600160a01b0316846001600160a01b0316148061192c575061192c8484610bbe565b806119505750826001600160a01b031661194583610dfd565b6001600160a01b0316145b949350505050565b806001600160a01b03163b60000361198e57604051634c9c8ce360e01b81526001600160a01b038216600482015260240161065d565b6000805160206120b783398151915280546001600160a01b0319166001600160a01b0392909216919091179055565b6060600080846001600160a01b0316846040516119da919061207a565b600060405180830381855af49150503d8060008114611a15576040519150601f19603f3d011682016040523d82523d6000602084013e611a1a565b606091505b5091509150611a2a858383611a52565b95945050505050565b3415610af25760405163b398979f60e01b815260040160405180910390fd5b606082611a6757611a6282611aae565b610bb7565b8151158015611a7e57506001600160a01b0384163b155b15611aa757604051639996b31560e01b81526001600160a01b038516600482015260240161065d565b5080610bb7565b805115611abe5780518082602001fd5b60405163d6bda27560e01b815260040160405180910390fd5b6001600160e01b03198116811461072957600080fd5b600060208284031215611aff57600080fd5b8135610bb781611ad7565b60005b83811015611b25578181015183820152602001611b0d565b50506000910152565b60008151808452611b46816020860160208601611b0a565b601f01601f19169290920160200192915050565b602081526000610bb76020830184611b2e565b600060208284031215611b7f57600080fd5b5035919050565b80356001600160a01b0381168114611b9d57600080fd5b919050565b60008060408385031215611bb557600080fd5b611bbe83611b86565b946020939093013593505050565b600080600060608486031215611be157600080fd5b611bea84611b86565b9250611bf860208501611b86565b9150604084013590509250925092565b634e487b7160e01b600052604160045260246000fd5b600067ffffffffffffffff80841115611c3957611c39611c08565b604051601f8501601f19908116603f01168101908282118183101715611c6157611c61611c08565b81604052809350858152868686011115611c7a57600080fd5b858560208301376000602087830101525050509392505050565b600082601f830112611ca557600080fd5b610bb783833560208501611c1e565b60008060408385031215611cc757600080fd5b611cd083611b86565b9150602083013567ffffffffffffffff811115611cec57600080fd5b611cf885828601611c94565b9150509250929050565b600060208284031215611d1457600080fd5b813567ffffffffffffffff811115611d2b57600080fd5b8201601f81018413611d3c57600080fd5b61195084823560208401611c1e565b600060208284031215611d5d57600080fd5b610bb782611b86565b60008060408385031215611d7957600080fd5b611d8283611b86565b915060208301358015158114611d9757600080fd5b809150509250929050565b60008060008060808587031215611db857600080fd5b611dc185611b86565b9350611dcf60208601611b86565b925060408501359150606085013567ffffffffffffffff811115611df257600080fd5b611dfe87828801611c94565b91505092959194509250565b60008060408385031215611e1d57600080fd5b611e2683611b86565b9150611e3460208401611b86565b90509250929050565b600181811c90821680611e5157607f821691505b602082108103611e7157634e487b7160e01b600052602260045260246000fd5b50919050565b634e487b7160e01b600052601160045260246000fd5b600060018201611e9f57611e9f611e77565b5060010190565b8082018082111561054157610541611e77565b808202811582820484141761054157610541611e77565b601f8211156109ed576000816000526020600020601f850160051c81016020861015611ef95750805b601f850160051c820191505b81811015610dbd57828155600101611f05565b815167ffffffffffffffff811115611f3257611f32611c08565b611f4681611f408454611e3d565b84611ed0565b602080601f831160018114611f7b5760008415611f635750858301515b600019600386901b1c1916600185901b178555610dbd565b600085815260208120601f198616915b82811015611faa57888601518255948401946001909101908401611f8b565b5085821015611fc85787850151600019600388901b60f8161c191681555b5050505050600190811b01905550565b60008351611fea818460208801611b0a565b835190830190611ffe818360208801611b0a565b01949350505050565b60006020828403121561201957600080fd5b5051919050565b6001600160a01b038581168252841660208201526040810183905260806060820181905260009061205390830184611b2e565b9695505050505050565b60006020828403121561206f57600080fd5b8151610bb781611ad7565b6000825161208c818460208701611b0a565b919091019291505056fe80bb2b638cc20bc4d0a60d66940f3ab4a00c1d7b313497ca82fb0b4ab0079300360894a13ba1a3210667c828492db98dca3e2076cc3735a920a3ca505d382bbca264697066735822122030d7c5de3b94e178b97d5242fac729f3db3c77cb37fe4d69c6323bcf4e038b8064736f6c63430008160033",
  "linkReferences": {},
  "deployedLinkReferences": {}
}